:020000040800F2
:1000000000500020053000083D0E0008410E000899
:10001000450E0008490E00084D0E000800000000C3
:10002000000000000000000000000000510E000869
:10003000550E000800000000590E00085D0E000873
:100040004D3000084D3000084D3000084D3000089C
:100050004D3000084D3000084D3000084D3000088C
:100060004D3000084D3000084D3000084D3000087C
:100070004D3000084D3000084D3000084D3000086C
:100080004D3000084D3000084D3000084D3000085C
:10009000690E00084D3000084D3000084D30000852
:1000A0004D3000084D3000084D3000084D3000083C
:1000B0004D3000084D3000084D3000084D3000082C
:1000C0004D3000084D3000084D3000084D3000081C
:1000D0004D3000084D3000084D3000084D3000080C
:1000E0004D3000084D3000084D3000080000000081
:1000F0000000000000000000000000000000000000
:0C01000000000000000000005FF808F1A3
:10010C0010B5054C237833B9044B13B10448AFF345
:10011C0000800123237010BD60010020000000004E
:10012C009C300008084B10B51BB108490848AFF3C8
:10013C0000800848036803B910BD074B002BFBD0A7
:10014C00BDE81040184700BF00000000640100200B
:10015C009C3000086001002000000000F0B583B066
:10016C0000263446D5E00122A2400B6813409A4287
:10017C0040F0CE804D68122D2DD00BD8022D27D0FB
:10018C0003D85DB3012D1ED035E0032D30D0112DD9
:10019C001BD030E0614FBD4220D008D8A7F58017A6
:1001AC00BD421BD007F58037BD4224D116E05C4F11
:1001BC00BD4213D007F58037BD420FD0A7F580178D
:1001CC00BD4218D10AE0CE6815E0CE68043612E0C4
:1001DC00CE6808360FE0CE680C360CE08D684DB159
:1001EC00012D02D10261082605E04261082602E0D9
:1001FC00002600E00426FF2B01D8864601E000F122
:10020C00040EFF2B01D8A20002E0A4F10802920018
:10021C00DEF800700F25954027EA050506FA02F274
:10022C002A43CEF800204A6812F0805F70D03D4A15
:10023C00956945F001059561926902F00102019200
:10024C00019AA708BD1C384A52F8255004F0030245
:10025C0092004FF00F0E0EFA02FE25EA0E0E334DF1
:10026C00A8420DD005F58065A8420BD005F5806538
:10027C00A84209D005F58065A84207D1032506E000
:10028C00002504E0012502E0022500E0042505FA22
:10029C0002F24EEA02020237234D45F827204A6843
:1002AC0012F4803F05D005F580652A681A432A6050
:1002BC0004E01F4D2A6822EA03022A604A6812F4FD
:1002CC00003F04D01A4D6A681A436A6004E0184D66
:1002DC006A6822EA03026A604A6812F4801F04D03A
:1002EC00134DAA681A43AA6004E0114DAA6822EAC9
:1002FC000302AA604A6812F4001F04D00C4DEA688D
:10030C001343EB6004E00A4DEA6822EA0303EB6056
:10031C0001340F2C7FF627AF03B0F0BD0000211085
:10032C0000003110001002400000014000080140A4
:10033C00000401400AB10161704709040161704772
:10034C0082B0084B1B68084AA2FB03235B0A00FB24
:10035C0003F0019000BF019B5A1E0192002BF9D1B2
:10036C0002B0704700000020D34D621070B582B00F
:10037C000446036813F0010F6BD0A84B5B6803F0C5
:10038C000C03042B0AD0A54B5B6803F00C03082B61
:10039C000DD1A24B5B6813F4803F08D09F4B1B68B8
:1003AC0013F4003F55D06368002B52D1B8E1636859
:1003BC00B3F5803F05D1994A136843F48033136039
:1003CC0026E063B903F1804303F504331A6822F481
:1003DC0080321A601A6822F480221A6018E0B3F591
:1003EC00A02F0CD103F18043A3F53C331A6842F4DF
:1003FC0080221A601A6842F480321A6008E0874B37
:10040C001A6822F480321A601A6822F480221A6068
:10041C0063687BB100F07CFB054605E000F078FBDF
:10042C00401B642800F27E817C4B1B6813F4003F58
:10043C00F4D00EE000F06CFB054605E000F068FB24
:10044C00401B642800F27081744B1B6813F4003F4E
:10045C00F4D1236813F0020F50D0704B5B6813F08B
:10046C000C0F0AD06D4B5B6803F00C03082B16D1F4
:10047C006A4B5B6813F4803F11D1684B1B6813F017
:10048C00020F03D02369012B40F05081634A13689B
:10049C0023F0F803616943EAC10313602EE023697A
:1004AC00D3B101225E4B1A6000F032FB054605E029
:1004BC0000F02EFB401B022800F23A81574B1B68C0
:1004CC0013F0020FF4D0554A136823F0F803616956
:1004DC0043EAC103136011E00022514B1A6000F093
:1004EC0017FB054605E000F013FB401B022800F249
:1004FC0021814A4B1B6813F0020FF4D1236813F0CF
:10050C00080F29D0A369ABB10122464B1A6000F049
:10051C00FFFA054605E000F0FBFA401B022800F24A
:10052C000B813E4B5B6A13F0020FF4D00120FFF7F6
:10053C0007FF11E000223B4B1A6000F0E9FA054678
:10054C0005E000F0E5FA401B022800F2F780334B7F
:10055C005B6A13F0020FF4D1236813F0040F00F060
:10056C0089802E4BDB6913F0805F0BD12B4BDA6942
:10057C0042F08052DA61DB6903F080530193019BF6
:10058C00012500E00025284B1B6813F4807F13D154
:10059C00254A136843F48073136000F0B9FA0646D9
:1005AC0005E000F0B5FA801B642800F2C9801E4BF0
:1005BC001B6813F4807FF4D0E368012B05D1174A34
:1005CC00136A43F00103136222E063B903F1804321
:1005DC0003F504331A6A22F001021A621A6A22F035
:1005EC0004021A6214E0052B09D10C4B1A6A42F072
:1005FC0004021A621A6A42F001021A6208E0074BFE
:10060C001A6A22F001021A621A6A22F004021A62B1
:10061C00E368CBB100F07CFA06460FE00010024014
:10062C0000004242800442420070004000F070FA28
:10063C00801B41F28833984200F28480494B1B6A3C
:10064C0013F0020FF2D00FE000F062FA064606E05B
:10065C0000F05EFA801B41F28833984274D8414B0B
:10066C001B6A13F0020FF3D125B13E4AD36923F074
:10067C008053D361E369002B68D03A4A526802F088
:10068C000C02082A64D0022B37D10022364B1A6098
:10069C0000F03EFA054604E000F03AFA401B02284E
:1006AC0058D8304B1B6813F0007FF5D1236AB3F593
:1006BC00803F06D12B494B6823F40032A3681343C7
:1006CC004B602848436823F47411236A626A13430D
:1006DC000B4343600122244B1A6000F019FA0446C4
:1006EC0004E000F015FA001B022835D81D4B1B68DE
:1006FC0013F0007FF5D0002031E000221A4B1A6075
:10070C0000F006FA044604E000F002FA001B02288E
:10071C0024D8144B1B6813F0007FF5D100201EE089
:10072C0001201CE003201AE0032018E0012016E051
:10073C00032014E0032012E0032010E003200EE05D
:10074C0003200CE003200AE0032008E0002006E070
:10075C00012004E0032002E0032000E0032002B0AB
:10076C0070BD00BF001002406000424230B486B041
:10077C00164D02AC28686968AA68EB680FC42B8A0E
:10078C00ADF80430124B5B6803F00C02082A19D147
:10079C00C3F3834206A90A4412F8102C13F4803FC9
:1007AC000CD00B4B5B68C3F340430B4413F8140C95
:1007BC00084BB3FBF0F000FB02F004E0064800FB32
:1007CC0002F000E0034806B030BC7047B4300008BB
:1007DC000010024000127A0000093D0070B55C4B1D
:1007EC001B6803F007038B420BD2594A136823F0A2
:1007FC0007030B431360136803F00703994240F09F
:10080C009780036813F0020F06D0524C636823F0F4
:10081C00F0028368134363600D460446036813F0CB
:10082C00010F4DD04268012A05D14A4B1B6813F4C5
:10083C00003F0DD17EE0022A05D1464B1B6813F018
:10084C00007F05D178E0434B1B6813F0020F75D085
:10085C0040494B6823F0030313434B6000F058F9F5
:10086C0006466368012B0ED106E000F051F9801B9F
:10087C0041F28833984263D8364B5B6803F00C0323
:10088C00042BF2D11CE0022B15D106E000F040F94C
:10089C00801B41F28833984254D82E4B5B6803F08E
:1008AC000C03082BF2D10BE000F032F9801B41F263
:1008BC008833984248D8274B5B6813F00C0FF3D160
:1008CC00234B1B6803F007039D420AD2204A13688E
:1008DC0023F007032B431360136803F007039D42B7
:1008EC0034D1236813F0040F06D01A494B6823F453
:1008FC00E062E36813434B60236813F0080F07D0E2
:10090C00144A536823F46053216943EAC1035360CA
:10091C00FFF72CFF0F4B5B68C3F303130E4AD35C3A
:10092C00D8400E4B1860002000F0C2F8002070BDBB
:10093C00012070BD012070BD012070BD012070BD73
:10094C00032070BD032070BD032070BD012070BD5D
:10095C000020024000100240C830000800000020B7
:10096C00014B1868704700BF00000020074AD3688D
:10097C0023F4E0631B041B0C000200F4E06018433A
:10098C0040F0BF6040F40030D060704700ED00E0F4
:10099C0030B4164BDB68C3F30223C3F10704042CF9
:1009AC0028BF04241D1D062D01D9DD1E00E00025E5
:1009BC00012303FA04F4013C2140A940AB40013B64
:1009CC001A400A43002806DA00F00F001201D2B2D6
:1009DC00074B1A5407E01201D2B200F1604000F547
:1009EC00614080F8002330BC704700BF00ED00E090
:1009FC0014ED00E0420900F01F00012303FA00F09F
:100A0C00014B43F82200704700E100E00138B0F1DF
:100A1C00807F0AD2064B5860F021064A82F82310D8
:100A2C000020986007221A6070470120704700BFB1
:100A3C0010E000E000ED00E0042805D1054A136841
:100A4C0043F0040313607047024A136823F0040355
:100A5C001360704710E000E0704700BF08B5FFF767
:100A6C00FBFF08BD0F4B1A6842F001021A6059686F
:100A7C000D4A0A405A601A6822F0847222F48032BD
:100A8C001A601A6822F480221A605A6822F4FE0254
:100A9C005A604FF41F029A604FF00062034B9A6049
:100AAC00704700BF001002400000FFF800ED00E0AE
:100ABC0010B50446074B1B680748A0FB03308009A0
:100ACC00FFF7A4FF002221464FF0FF30FFF760FF35
:100ADC00002010BD00000020D34D621008B5074A5D
:100AEC00136843F0100313600320FFF73FFF00204F
:100AFC00FFF7DEFF00F0D4F8002008BD0020024014
:100B0C00024A136801331360704700BFA003002032
:100B1C00014B1868704700BFA003002010B588B0C7
:100B2C00174B9A6942F010029A619A6902F010020E
:100B3C000192019A9A6942F020029A619A6902F034
:100B4C0020020292029A9A6942F004029A619B690D
:100B5C0003F004030393039B0A4C00224FF400514F
:100B6C002046FFF7E7FB4FF4005304930123059352
:100B7C000323079304A92046FFF7F0FA08B010BD31
:100B8C00001002400010014082B00190019B5A1EDF
:100B9C000192002BFAD102B0704700BFFEE700BFF4
:100BAC0000B595B001220A924FF480330B930021CB
:100BBC000C910E920222119212934FF4E0131393A4
:100BCC000AA8FFF7D3FB18B19D211A48FFF7E6FFDF
:100BDC000F23059302210691002307934FF48062A3
:100BEC000892099305A8FFF7F9FD18B1AB2111483C
:100BFC00FFF7D4FF102301930023049301A800F006
:100C0C008DF818B1B2210B48FFF7C8FFFFF7A8FE0B
:100C1C00094BA3FB00308009FFF7F8FE0420FFF717
:100C2C000BFF002211464FF0FF30FFF7B1FE15B05D
:100C3C005DF804FBD8300008D34D621008B5FFF7FF
:100C4C004DFFFFF7ADFFFFF769FF01F091F9104D74
:100C5C0001224FF400512846FFF76CFB0D4C204647
:100C6C00FFF792FF00224FF400512846FFF762FB7A
:100C7C002046FFF789FF084B1B78012BE7D1064B69
:100C8C0000221A709988054802F050F8DFE700BF7F
:100C9C0000100140FFFF0F0048010020A4030020BA
:100CAC0000B583B01C4B9A6942F001029A619B69B2
:100CBC0003F001030193019B0320FFF757FE002271
:100CCC0011466FF00B00FFF763FE002211466FF028
:100CDC000A00FFF75DFE002211466FF00900FFF7D6
:100CEC0057FE002211466FF00400FFF751FE002260
:100CFC0011466FF00300FFF74BFE002211466FF018
:100D0C000100FFF745FE002211464FF0FF30FFF7C0
:100D1C003FFE03B05DF804FB0010024070B582B0DA
:100D2C000446036813F0010F5CD03E4BDB6913F0F3
:100D3C00805F0BD13B4BDA6942F08052DA61DB69A0
:100D4C0003F080530193019B012600E00026364BF3
:100D5C001B6813F4807F12D1334A136843F48073F9
:100D6C001360FFF7D5FE054604E0FFF7D1FE401BEC
:100D7C0064284FD82C4B1B6813F4807FF5D0294B7B
:100D8C001B6A13F4407321D0626802F440729342E0
:100D9C001CD0244A136A23F44070244901250D60A9
:100DAC0000250D60106213F0010F0FD0FFF7B0FE9D
:100DBC00054606E0FFF7ACFE401B41F28833984233
:100DCC002AD8184B1B6A13F0020FF3D015490B6A83
:100DDC0023F44072636813430B621EB1CB6923F09A
:100DEC008053CB61236813F0020F06D00D494B687A
:100DFC0023F44042A36813434B60236813F0100F95
:100E0C000CD008494B6823F48002E36813434B6011
:100E1C00002004E0032002E0032000E0002002B0E8
:100E2C0070BD00BF00100240007000404004424200
:100E3C00704700BFFEE700BFFEE700BFFEE700BF44
:100E4C00FEE700BF704700BF704700BF704700BF90
:100E5C0008B5FFF755FEFFF701FE08BD08B50248BF
:100E6C0000F082FF08BD00BFC817002010B401F0CD
:100E7C008004A4B22CB101F07F0149012831014456
:100E8C0003E0490101F50A71014412B98A728B80A1
:100E9C0004E001228A72CB801B0C0B81002010BC59
:100EAC00704700BF0346002002E00130C0B201339E
:100EBC001A78002AF9D170474B88012B0BD110B549
:100ECC000446C0F80432D0F814329B689847204688
:100EDC0000F0D2FB10BD70470B7803704B78437059
:100EEC008B78CA7803EB022343800B794A7903EBA6
:100EFC00022383808B79CA7903EB0223C38070476A
:100F0C0010B50446802102F005F80021204602F0BD
:100F1C0001F810BD30B583B004460D464A88130A5B
:100F2C00013B062B79D8DFE803F0040C2078785CC1
:100F3C006900D0F810321B680DF10601007C98474F
:100F4C006FE0037C43B9D0F814329B6A0DF10600B4
:100F5C0098470223437064E0D0F81432DB6A0DF139
:100F6C0006009847022343705BE0D2B2052A34D8BE
:100F7C00DFE802F0030B131B232BD0F810325B6855
:100F8C000DF10601007C98474BE0D0F810329B68BD
:100F9C000DF10601007C984743E0D0F81032DB6875
:100FAC000DF10601007C98473BE0D0F810321B692C
:100FBC000DF10601007C984733E0D0F810325B69E4
:100FCC000DF10601007C98472BE0D0F810329B699C
:100FDC000DF10601007C984723E02946FFF790FFAE
:100FEC002DE0037C33B9D0F814325B6B0DF10600A5
:100FFC00984716E02946FFF783FF20E0037C43B9AE
:10100C00D0F814321B6B0DF1060098470723437080
:10101C0007E02946FFF774FF11E02946FFF770FF40
:10102C000DE0BDF8063053B1EA8842B19A4228BFB0
:10103C001A46ADF806200146204600F0EFFA03B040
:10104C0030BD00BF38B504468B88E3B9CB88D3B923
:10105C008D7805F07F0590F8FC31032B02D1FFF75A
:10106C004FFF38BD80F8FE51294601F087FF20461E
:10107C0000F002FB1DB1022384F8FC3138BD0123C2
:10108C0084F8FC3138BD2046FFF73AFF38BD00BF6D
:10109C0038B504460D468978264B1970012903D9B9
:1010AC002946FFF72DFF38BD90F8FC31022B02D0FA
:1010BC00032B15D039E081B14160032380F8FC315A
:1010CC0000F098FF022804D129462046FFF718FFAC
:1010DC0038BD204600F0D0FA38BD00F0CDFA38BD4E
:1010EC0049B9022380F8FC31416000F091FF2046A1
:1010FC0000F0C2FA38BD4368994213D0D9B200F05F
:10110C0087FF0C4B19786160204600F073FF0228B2
:10111C0004D129462046FFF7F3FE38BD204600F0E7
:10112C00ABFA38BD00F0A8FA38BD2946FFF7E8FE47
:10113C0038BD00BF7C01002008B5CB88012B02D044
:10114C00FFF7DEFE08BD90F8FC31022B02D0032B1A
:10115C0008D00CE00146002341F8083F012200F0C2
:10116C005DFA08BD0122011D00F058FA08BDFFF719
:10117C00C7FE08BD08B590F8FC31023B012B0CD81A
:10118C000123C360D0F804320BB10323C3600222E5
:10119C0000F10C0100F042FA08BDFFF7B1FE08BDEA
:1011AC0010B5044690F8FC31023B012B0DD84B884E
:1011BC00012B0CD10023C0F80432D0F814329B68F8
:1011CC009847204600F058FA10BDFFF799FE10BD65
:1011DC0008B54B78092B1BD8DFE803F011171A144C
:1011EC001A08051A0E0BFFF795FE13E0FFF72AFFFE
:1011FC0010E0FFF74DFF0DE0FFF79EFF0AE0FFF751
:10120C00B9FF07E0FFF758FE04E0FFF7C9FF01E064
:10121C00FFF776FE002008BD38B504460D4690F861
:10122C00FC31032B0FD10B79012B09D8D0F81432D8
:10123C009B689847EB8843B9204600F01DFA04E000
:10124C00FFF75EFE01E0FFF75BFE002038BD00BF3C
:10125C0038B505460C468A880B7803F06003202BC2
:10126C0004D1D0F814329B6898477DE0D1B26378F2
:10127C00012B26D0002B48D0032B75D190F8FC31D4
:10128C00022B02D0032B07D017E000296CD0802949
:10129C006AD001F03FFE67E0638823B919B1802959
:1012AC0001D001F037FED5F814329B682146284650
:1012BC009847284600F0E0F956E02146FFF720FE5B
:1012CC0052E090F8FC31022B02D0032B07D018E02F
:1012DC00002949D0802947D001F01CFE44E06388E6
:1012EC00002B41D111F07F0F07D001F023FED5F870
:1012FC0014329B68214628469847284600F0BCF9D2
:10130C0032E02146FFF7FCFD2EE090F8FC31022B79
:10131C0002D0032B06D024E011F07F0F24D001F073
:10132C00F9FD21E012F0800F06D001F07F040134AA
:10133C0000EB0414043405E001F07F04103400EBDE
:10134C0004140434284601F005FE10B10123236077
:10135C0001E00023236002222146284600F05EF9BA
:10136C0002E02146FFF7CCFD002038BDD0B170B5AE
:10137C000D4616460446FFF795FD0130400080B23D
:10138C003080287003236B70022307E05A1CD2B202
:10139C000134E9540233DBB20021A954217800292D
:1013AC00F4D170BD704700BFD0F818321BB10020CB
:1013BC00C3F8140270470220704700BF10B5D0F874
:1013CC001842D0F81C325BB194F80002FF2807D009
:1013DC009B6894F8012221469847FF2384F8003239
:1013EC00002010BD432303800048704704000020F8
:1013FC004323038000487047D00000204323038020
:10140C00004870478C0000200A2303800048704776
:10141C008000002038B50446D0F8185201F0DEFDEB
:10142C00C5F80C02D4F818324BB1D4F81C32DB6876
:10143C0005F50371D5F804029847002038BD022049
:10144C0038BD00BF70B505460C46D0F818620B7855
:10145C0013F0600224D0202A29D1CA88CAB113F013
:10146C00800F0BD0D0F81C329B68314660789847BF
:10147C00E2883146284600F0D1F818E04B7886F81F
:10148C000032CB8886F80132CA88314600F0DCF88D
:10149C000DE0D0F81C329B6800224878984706E093
:1014AC004B780A2B03D10122024900F0B7F8002037
:1014BC0070BD00BF7D01002010B50446812101F0F4
:1014CC0019FD0121204601F015FD8221204601F075
:1014DC0011FDD4F8183253B1D4F81C325B6898471C
:1014EC00D4F8180201F084FD0023C4F8183200204F
:1014FC0010BD00BF38B50446037C6BB94FF40073C4
:10150C000222812101F0E4FC4FF40073022201213C
:10151C00204601F0DDFC0AE040230222812101F08B
:10152C00D7FC402302220121204601F0D1FC0823E4
:10153C0003228221204601F0CBFC4FF4077001F00E
:10154C0053FD0546C4F81802E8B1D4F81C321B68E8
:10155C0098470023C5F81432C5F81832237C4BB9D0
:10156C004FF40073D5F804220121204601F026FD2A
:10157C00002038BD4023D5F804220121204601F07B
:10158C001DFD002038BD012038BD00BF19B1C0F8C9
:10159C001C12002070470220704700BFD0F8183290
:1015AC00C3F80812C3F8102200207047D0F8183284
:1015BC00C3F8041200207047D0F818227AB108B58D
:1015CC00D2F814326BB90123C2F81432B2F81032CB
:1015DC00D2F80822812101F0E1FC002008BD022094
:1015EC007047012008BD00BFD0F818229AB108B589
:1015FC00037C43B94FF40073D2F80422012101F0AB
:10160C00DDFC002008BD4023D2F80422012101F0AA
:10161C00D5FC002008BD0220704700BF10B5134652
:10162C000222C0F8F4218361C3610A46002101F053
:10163C00B5FC002010BD00BF08B513460A460021BA
:10164C0001F0ACFC002008BD10B513460322C0F815
:10165C00F421C0F80831C0F80C310A46002101F021
:10166C00ADFC002010BD00BF08B513460A46002192
:10167C0001F0A4FC002008BD08B50423C0F8F43127
:10168C0000231A46194601F089FC002008BD00BF52
:10169C0008B50523C0F8F43100231A46194601F0A9
:1016AC008DFC002008BD00BF002867D0F0B587B0C6
:1016BC00044690F8293413F0FF0F04D1002380F86E
:1016CC00283401F049FB032384F82934206800F006
:1016DC0013FE254655F8107B6E460FCD0FC62B68B2
:1016EC003360231D0ECB384600F0F4FD002120683A
:1016FC0000F00CFE002310E004EB4312012182F8F1
:10170C00291082F828309386002182F82B109163DF
:10171C00D1639A1C5201A15001330E2BECD900233A
:10172C0012E004EB4312002182F8291282F82832CD
:10173C00938682F82B12C2F83812C2F83C1203F1CD
:10174C0012025201A15001330E2BEAD9254655F84D
:10175C00107B6E460FCD0FC62B683360231D0ECB4E
:10176C00384600F0D5FD002584F82450012384F878
:10177C002934206801F0F4F8284601E00120704774
:10178C0007B0F0BD90F82834012B10D010B50446EA
:10179C00012180F8281401F02DFC206801F0DEF8FE
:1017AC00206800F09FFD002084F8280410BD022062
:1017BC00704700BF90F82834012B0DD010B50446AB
:1017CC00012380F8283480F82410006801F0C0F858
:1017DC00002084F8280410BD0220704738B54DB2A3
:1017EC00002D05DA01F07F0464012834044405E07F
:1017FC0001F07F04640104F50A74044401F07F01D4
:10180C002170ED0F65702261E37090F82834012B84
:10181C000BD00546012380F828342146006800F0DF
:10182C008DFD002085F8280438BD022038BD00BF8E
:10183C004AB2002A05DA01F07F035B012833034426
:10184C0005E001F07F035B0103F50A73034401F02B
:10185C007F011970D20F5A7090F82824012A0CD0ED
:10186C0010B50446012280F828241946006800F0BF
:10187C0003FF002084F8280410BD0220704700BF2D
:10188C0070B501F07F056C0104F50A710144044444
:10189C00C4F83C2205F11202520186188350002331
:1018AC00736084F8293284F828521DB9006801F05D
:1018BC0073F802E0006801F06FF8002070BD00BF03
:1018CC0001F00F01123100EB41108088704700BF0E
:1018DC0070B501F07F056C0104F12801014404444A
:1018EC00E263AA1C52018618835000237360012303
:1018FC0084F8293084F828501DB9006801F04CF8A0
:10190C0002E0006801F048F8002070BD70B582B0AC
:10191C0005460023ADF80630ADF8043016E2BDF8EC
:10192C00064014F00F0440F0C880BDF8063003F0F8
:10193C0010039BB29BBB03889BB223F4E14323F0BF
:10194C0070039BB203802968B1F850309AB295F8B5
:10195C00283002EBC303023301EB4303D3F800340A
:10196C00C3F309036B64EA6B1344EB630021284651
:10197C0001F024FA95F8243013F0FF0F00F0E68103
:10198C002B6C002B40F0E2812A6895F8243043F050
:10199C008003A2F84C30002385F82430D6E103886C
:1019AC009BB2ADF80430BDF8043003F400639BB275
:1019BC0003B3B0F850309BB295F8282203EBC20366
:1019CC00063300EB4303D3F80034C3F30903C5F823
:1019DC004432B5F82C2205F22C4101F051F92A6859
:1019EC00138823F070031B051B0D1380284601F090
:1019FC00D3F9ABE1BDF8043013F4004F00F0A6812D
:101A0C00038823F070031B051B0D03802868B0F8B6
:101A1C0050309BB295F8282203EBC203063300EB3F
:101A2C004303D3F80034C3F30903C5F8443263B15C
:101A3C00B5F82C22D5F83C1201F022F9D5F83C224D
:101A4C00D5F844321344C5F83C320021284601F045
:101A5C00ABF92A68B2F850309BB2063302EB430361
:101A6C00D5F838123E290ED9C1F34F1211F01F0FC1
:101A7C0001D1013A92B26FEAC2626FEA524292B25B
:101A8C00C3F800240AE0C1F34F0211F0010F01D09A
:101A9C00013292B2920292B2C3F800242A681388DF
:101AAC009BB223F4804323F0700383F4405343F43C
:101ABC00004343F08003138048E130F824309BB29C
:101ACC00ADF80430BDF8043013F4004F00F09680EC
:101ADC0030F8243023F070031B051B0D20F8243044
:101AEC0005EB441393F83232E3B92868B0F8503060
:101AFC009BB205EB441292F8282203EBC203063387
:101B0C0000EB4303B3F80064C6F30906002E52D071
:101B1C0005EB44113346B1F82C22D1F83C1201F0FC
:101B2C00AFF848E0286805EB441393F8281230F816
:101B3C00213003F480439BB2B3B1B0F8502092B281
:101B4C0002EBC103023300EB4303B3F80064C6F3AA
:101B5C000906FEB105EB44113346B1F82E22D1F83B
:101B6C003C1201F08DF815E0B0F850309BB203EB4D
:101B7C00C103063300EB4303B3F80064C6F3090654
:101B8C0046B105EB44113346B1F83022D1F83C1282
:101B9C0001F076F82A6805EB441393F8281232F812
:101BAC00213023F0F0031B051B0D43F4004343F0DD
:101BBC00C00322F8213004F112035B01E9184A68D2
:101BCC0032444A6005EB4411D1F83C223244C1F84E
:101BDC003C22EB581BB1D1F838128E4207D205EBE0
:101BEC00441393F82812284601F0DEF806E005EBC2
:101BFC00441191F828122846FFF742FEBDF8043034
:101C0C0003F080039BB2002B00F0A0802A6832F80E
:101C1C0024309BB223F4E14323F070039BB222F8EF
:101C2C00243005EB441393F83230EBB92868B0F844
:101C3C0050309BB205EB441292F8282003EBC20300
:101C4C00023300EB4303D3F80034C3F30903A21CA3
:101C5C0005EB42125360002B51D005EB44118A8DD9
:101C6C00C96B00F085FE4AE0286805EB441393F835
:101C7C00281030F8213003F040039BB2BBB1B0F810
:101C8C00502092B202EBC103023300EB4303D3F8B2
:101C9C000034C3F30903A21C05EB42125360EBB1F1
:101CAC0005EB4411CA8DC96B00F062FE16E0B0F86A
:101CBC0050309BB203EBC103063300EB4303D3F864
:101CCC000034C3F30903A21C05EB421253602BB181
:101CDC0005EB44110A8EC96B00F04AFE2A6805EB2D
:101CEC00441393F8281032F8213023F0F0031B052D
:101CFC001B0D43F4404343F0800322F82130296844
:101D0C00B1F850309AB205EB441090F8283002EB41
:101D1C00C303023301EB4303D3F80034C3F30903C9
:101D2C00A11C49016A185360C26B1A44C2636B58F8
:101D3C002BB990F82810284601F040F806E005EB86
:101D4C00441494F828102846FFF7C2FD2868B0F810
:101D5C0044309BB2ADF8063013F4004F7FF4DFAD86
:101D6C00002002B070BD00BF10B50446006800F042
:101D7C00F9FD10F4004F02D02046FFF7C7FD206894
:101D8C0000F0F0FD10F4806F0FD02268B2F84430F0
:101D9C009BB223F480639BB2A2F84430204601F03E
:101DAC001DF800212046FFF705FD206800F0DAFD44
:101DBC0010F4804F08D02268B2F844309BB223F460
:101DCC0080439BB2A2F84430206800F0CBFD10F4A5
:101DDC00005F08D02268B2F844309BB223F4005361
:101DEC009BB2A2F84430206800F0BCFD10F4805F78
:101DFC001DD02268B2F840309BB223F004039BB292
:101E0C00A2F840302268B2F840309BB223F00803AD
:101E1C009BB2A2F84030204600F0FCFF2268B2F8DA
:101E2C0044309BB223F480539BB2A2F84430206818
:101E3C0000F098FD10F4006F21D02268B2F8403009
:101E4C009BB243F00803A2F840302268B2F8443049
:101E5C009BB223F400639BB2A2F844302268B2F820
:101E6C0040309BB243F00403A2F84030206800F0ED
:101E7C0079FD10F4805F02D1204600F0BBFF206892
:101E8C0000F070FD10F4007F0BD02268B2F84430E3
:101E9C009BB223F400739BB2A2F84430204600F0AE
:101EAC0097FF206800F05EFD10F4807F08D0226858
:101EBC00B2F844309BB223F480739BB2A2F8443046
:101ECC0010BD00BF38B54AB2002A05DA01F07F0315
:101EDC005B012833034403E04B0103F50A7303440D
:101EEC0001249C7001F07F041C70D20F5A7090F882
:101EFC002824012A11D00546012280F828241946ED
:101F0C00006800F0A1FC24B905F22C41286800F00F
:101F1C002DFD002085F8280438BD022038BD00BFF7
:101F2C0010B54AB2002A05DA01F07F035B012833B1
:101F3C00034403E04B0103F50A73034400249C7033
:101F4C0001F07F011970D20F5A7090F82824012AE1
:101F5C000BD00446012280F828241946006800F0B2
:101F6C00ABFC002084F8280410BD022010BD00BF7B
:101F7C0010B5094C00220949204600F015F8084913
:101F8C00204600F029F807492046FFF7FFFA2046C3
:101F9C0000F02AF810BD00BFA40B00201401002093
:101FAC00480000205001002098B108B50346D0F835
:101FBC00140210B10020C3F8140209B1C3F81012B6
:101FCC001846012380F8FC31027000F029FF002034
:101FDC0008BD0220704700BF19B1C0F814120020D0
:101FEC0070470220704700BF08B500F061FF002069
:101FFC0008BD00BF08B5D0F8143223B11B68984750
:10200C0018B1022008BD022008BD002008BD00BF89
:10201C0008B5D0F814325B689847002008BD00BFA3
:10202C0038B5044600F502752846FEF755FF012326
:10203C00C4F8F431B4F80E32C4F8F83194F808123C
:10204C0001F01F03012B08D013B1022B0AD00EE0B4
:10205C0029462046FFF7BCF80EE029462046FFF73C
:10206C00DBF809E029462046FFF7F2F804E001F01E
:10207C008001204600F04EFF002038BD10B504460C
:10208C0011BB1346D0F8F421032A28D1D0F80C1137
:10209C00D0F8102191420AD9891AC0F80C118A4241
:1020AC0028BF0A4692B21946FFF7DEFA17E0D0F8BD
:1020BC0014321B6923B190F8FC21032A00D19847F4
:1020CC002046FFF7D9FA0AE00A46D0F814329B6989
:1020DC002BB190F8FC11032901D11146984700202F
:1020EC0010BD00BF10B50446002943D11346D0F8EB
:1020FC00F421022A36D1C169026A91420CD98A1A9A
:10210C00C26192B21946FFF797FA00231A46194694
:10211C00204600F053FF25E08169B1FBF2F302FB8E
:10212C00131393B98A4210D8D0F8F83199420CD2D3
:10213C0000221146FFF780FA0021C4F8F8110B4673
:10214C000A46204600F03AFF0CE0D4F81432DB6863
:10215C002BB194F8FC21032A01D120469847204644
:10216C00FFF796FA94F80032012B0ED1002384F875
:10217C0000320AE00A46D0F814325B692BB190F8B1
:10218C00FC11032901D111469847002010BD00BF56
:10219C0038B5044640230022114600F099FE402534
:1021AC00C4F810512B4600228021204600F090FEEE
:1021BC002562012384F8FC31D4F818322BB1D4F801
:1021CC0014325B68217920469847002038BD00BF47
:1021DC0001740020704700BF90F8FC3180F8FD318D
:1021EC00042380F8FC310020704700BF90F8FD31CB
:1021FC0080F8FC310020704708B590F8FC31032BB7
:10220C0004D1D0F81432DB6903B19847002008BD23
:10221C0012230B80004870473401002004230B80EC
:10222C00004870473001002008B50A4620B905491E
:10223C000548FFF79BF803E002490348FFF796F8BF
:10224C00004808BDC80D0020E430000810B5044C4F
:10225C000A4621460348FFF789F8204610BD00BF07
:10226C00C80D0020FC30000808B50A4620B9054905
:10227C000548FFF77BF803E002490348FFF776F8BF
:10228C00004808BDC80D00201031000808B50A46EA
:10229C0020B905490548FFF769F803E002490348EE
:1022AC00FFF764F8004808BDC80D00202031000875
:1022BC0008B50A4620B905490548FFF757F803E069
:1022CC0002490348FFF752F8004808BDC80D00202A
:1022DC002C31000884B001A880E80E00002004B066
:1022EC00704700BFB0F840309BB243F43F43A0F8B6
:1022FC0040300020704700BFB0F8403023F47453D6
:10230C005B045B0CA0F84030002070470020704745
:10231C0084B038B505AC84E80E000123A0F8403039
:10232C000024A0F84040A0F84440A0F85040FFF72B
:10233C00D9FF2046BDE8384004B0704710B4CB78C4
:10234C00032B35D8DFE803F002280F1B0A7830F88E
:10235C0022309BB223F4EC4323F0700343F400735C
:10236C0020F8223024E00A7830F822309BB223F493
:10237C00EC4323F070039BB220F8223018E00A786B
:10238C0030F822309BB223F4EC4323F0700343F477
:10239C00C06320F822300BE00A7830F822309BB270
:1023AC0023F4EC4323F0700343F4806320F82230D1
:1023BC000A7830F8223023F0F0031B051B0D134371
:1023CC0043F4004343F0800320F822308B7A002B37
:1023DC0040F08B804B7883B3B0F850309BB20A78C6
:1023EC0003EBC20300EB43038A8852085200C3F884
:1023FC0000240A7830F8223003F040039BB25BB122
:10240C0030F8223023F0F0031B051B0D43F400437E
:10241C0043F0C00320F822300A7830F822309BB207
:10242C0023F4E04323F0400383F0200343F4004300
:10243C0043F0800320F822301BE1B0F850309BB2FF
:10244C000A7803EBC203043300EB43038A88520877
:10245C005200C3F80024B0F850309BB20A7803EB5A
:10246C00C203063300EB43030C693E2C0ED9C4F3B4
:10247C004F1214F01F0F01D1013A92B26FEAC262EF
:10248C006FEA524292B2C3F800240AE0C4F34F023E
:10249C0014F0010F01D0013292B2920292B2C3F841
:1024AC0000240A7830F8223003F480439BB25BB1ED
:1024BC0030F8223023F0F0031B051B0D43F440438E
:1024CC0043F0800320F822300A7830F822309BB297
:1024DC0023F4804323F0700383F4405343F400430C
:1024EC0043F0800320F82230C3E00A7830F8223021
:1024FC0023F4F8731B051B0D43F4014343F08003D5
:10250C0020F82230B0F850309BB20A7803EBC203AB
:10251C0000EB4303CA8852085200C3F80024B0F8F9
:10252C0050309BB20A7803EBC203043300EB430335
:10253C000A8952085200C3F800244B78002B4DD165
:10254C000A7830F8223003F480439BB25BB130F848
:10255C00223023F0F0031B051B0D43F4404343F0E2
:10256C00800320F822300A7830F8223003F0400340
:10257C009BB25BB130F8223023F0F0031B051B0D2E
:10258C0043F4004343F0C00320F822300A7830F8BB
:10259C00223023F0F0031B051B0D43F4004343F0E2
:1025AC00C00320F822300C7830F824309BB223F48E
:1025BC00804323F0700383F4405348F280021343AA
:1025CC0020F82430097830F821309BB223F4E04312
:1025DC0023F04003134320F821304AE00A7830F806
:1025EC00223003F480439BB25BB130F8223023F0ED
:1025FC00F0031B051B0D43F4404343F0800320F80C
:10260C0022300A7830F8223003F040039BB25BB1E1
:10261C0030F8223023F0F0031B051B0D43F400436C
:10262C0043F0C00320F822300A7830F8223023F02F
:10263C00F0031B051B0D43F4404343F0800320F8CB
:10264C0022300C7830F824309BB223F4E04323F092
:10265C00400348F28002134320F82430097830F804
:10266C0021309BB223F4804323F07003134320F8F2
:10267C002130002010BC70478B7A002B46D14B7850
:10268C0013B30A7830F8223003F040039BB25BB1ED
:10269C0030F8223023F0F0031B051B0D43F40043EC
:1026AC0043F0C00320F822300A7830F822309BB275
:1026BC0023F4E04323F0400343F4004343F080034E
:1026CC0020F82230002070470A7830F8223003F4CA
:1026DC0080439BB25BB130F8223023F0F0031B0532
:1026EC001B0D43F4404343F0800320F822300A785A
:1026FC0030F822309BB223F4804323F0700343F470
:10270C00004343F0800320F82230DBE710B44B7811
:10271C00002B4BD10A7830F8223003F480439BB263
:10272C005BB130F8223023F0F0031B051B0D43F492
:10273C00404343F0800320F822300A7830F82230EE
:10274C0003F040039BB25BB130F8223023F0F0036E
:10275C001B051B0D43F4004343F0C00320F822304B
:10276C000A7830F8223023F0F0031B051B0D43F4DC
:10277C00004343F0C00320F822300C7830F82430AA
:10278C009BB223F4804323F0700348F2800213437E
:10279C0020F82430097830F821309BB223F4E04340
:1027AC0023F04003134320F821304AE00A7830F834
:1027BC00223003F480439BB25BB130F8223023F01B
:1027CC00F0031B051B0D43F4404343F0800320F83A
:1027DC0022300A7830F8223003F040039BB25BB110
:1027EC0030F8223023F0F0031B051B0D43F400439B
:1027FC0043F0C00320F822300A7830F8223023F05E
:10280C00F0031B051B0D43F4404343F0800320F8F9
:10281C0022300C7830F824309BB223F4E04323F0C0
:10282C00400348F28002134320F82430097830F832
:10283C0021309BB223F4804323F07003134320F820
:10284C002130002010BC70470A788AB930F8223049
:10285C009BB223F4804323F0400383F4805383F032
:10286C00100343F4004343F0800320F8223020E0AF
:10287C004B787BB130F822309BB223F4E04323F049
:10288C00400383F0100343F4004343F0800320F82B
:10289C0022300EE030F822309BB223F4804323F038
:1028AC00700383F4805343F4004343F0800320F817
:1028BC0022300020704700BF4B781BB30A7830F8E9
:1028CC00223003F040039BB25BB130F8223023F08E
:1028DC00F0031B051B0D43F4004343F0C00320F829
:1028EC0022300A7830F822309BB223F4E04323F0F4
:1028FC00400383F0300343F4004343F0800320F89B
:10290C00223022E00A7830F8223003F480439BB264
:10291C005BB130F8223023F0F0031B051B0D43F4A0
:10292C00404343F0800320F822300A7830F82230FC
:10293C009BB223F4804323F0700383F4405343F49D
:10294C00004343F0800320F822300020704700BF82
:10295C0011B98023A0F84C3000207047002070473C
:10296C0000207047B0F8440080B2704700207047D8
:10297C0010B401335B1000EB420202F5806207E0F9
:10298C000C78487844EA002422F8044B0231013BCD
:10299C00002BF5D110BC704770B54A78012A40F075
:1029AC00C2808E690B699E4203D9F61A8E611E464F
:1029BC0001E000238B610D4604468B7A83B9B3B2D8
:1029CC008A884969FFF7D4FFB4F850309BB22A7853
:1029DC0003EBC203023304EB4303C3F8006491E03E
:1029EC00097830F8213003F040039BB29BB322BB33
:1029FC00B0F850309BB203EBC101063100EB410142
:102A0C003E2E0ED9C6F34F1316F01F0F01D1013B0A
:102A1C009BB26FEAC3636FEA53439BB2C1F80034B5
:102A2C0017E0C6F34F0316F0010F01D001339BB230
:102A3C009B029BB2C1F800340BE0012A09D1B0F81B
:102A4C0050309BB203EBC103023300EB4303C3F8DA
:102A5C0000642A8932E022BBB0F850309BB203EB01
:102A6C00C101023100EB41013E2E0ED9C6F34F13CA
:102A7C0016F01F0F01D1013B9BB26FEAC3636FEAE3
:102A8C0053439BB2C1F8003417E0C6F34F0316F062
:102A9C00010F01D001339BB29B029BB2C1F80034F1
:102AAC000BE0012A09D1B0F850309BB203EBC10303
:102ABC00023300EB4303C3F80064EA88B3B26969DC
:102ACC002046FFF755FF6B786BB92A7834F8223023
:102ADC0023F0F0031B051B0D43F4004343F0C0032C
:102AEC0024F822300EE0012B0CD12A7834F8223055
:102AFC0023F0F0031B051B0D43F4404343F080030C
:102B0C0024F822302A7834F822309BB223F4E043A4
:102B1C0023F0400383F0300343F4004343F080037D
:102B2C0024F82230AAE08B690C69A34203D91B1B41
:102B3C008B61234601E000248C618C7A2CBBB0F8AD
:102B4C00502092B20C7802EBC402063200EB420227
:102B5C003E2B0ED9C3F34F1413F01F0F01D1013CC0
:102B6C00A4B26FEAC4646FEA5444A4B2C2F800443D
:102B7C0074E0C3F34F0413F0010F01D00134A4B27D
:102B8C00A402A4B2C2F8004468E02ABBB0F85020FA
:102B9C0092B20C7802EBC402023200EB42023E2BE2
:102BAC000ED9C3F34F1413F01F0F01D1013CA4B283
:102BBC006FEAC4646FEA5444A4B2C2F8004418E04B
:102BCC00C3F34F0413F0010F01D00134A4B2A402DB
:102BDC00A4B2C2F800440CE0012A0AD1B0F850208B
:102BEC0092B20C7802EBC402023200EB4202C2F841
:102BFC0000344A782ABBB0F8502092B20C7802EB21
:102C0C00C402063200EB42023E2B0ED9C3F34F1422
:102C1C0013F01F0F01D1013CA4B26FEAC4646FEA38
:102C2C005444A4B2C2F8004418E0C3F34F0413F0A8
:102C3C00010F01D00134A4B2A402A4B2C2F8004422
:102C4C000CE0012A0AD1B0F8502092B20C7802EBB9
:102C5C00C402023200EB4202C2F800340A7830F8A7
:102C6C0022309BB223F4804323F0700383F440534F
:102C7C0043F4004343F0800320F82230002070BD61
:102C8C0001335B1000EB420202F5806204E0106835
:102C9C0021F8020B013B0432002BF8D1704700BF26
:102CAC00002070470020704738B5134B1B781BB1C0
:102CBC00114B00221A709A800B680F4CA3800F4D99
:102CCC000F492846FEF772FC2846FEF78DFCA388B8
:102CDC00B3F5006F0BD29A1E0949895C6278914258
:102CEC0008D1013B064AD25CA3789A4202D1012258
:102CFC00014B1A70002038BD48010020A40B0020A5
:102D0C00A403002010B5064C002206492046FEF70D
:102D1C0045FC05492046FEF749FC002010BD00BFCC
:102D2C00A40B0020C80F0020A4030020094BD3F8EB
:102D3C001832D3F8143253B910B50A460146054C73
:102D4C002046FEF72BFC2046FEF736FC10BD01207A
:102D5C00704700BFA40B002002680E4B9A4217D19B
:102D6C0000B583B003F5DA33DA6942F40002DA61B4
:102D7C00DB6903F400030193019B0022114614202C
:102D8C00FDF706FE1420FDF735FE03B05DF804FBDD
:102D9C00704700BF005C004008B500F22C41D0F831
:102DAC005C04FFF73DF908BD08B500EB4113D3F8FF
:102DBC003C22D0F85C04FFF761F908BD08B500EBC4
:102DCC004113DA6BD0F85C04FFF78CF908BD00BF37
:102DDC0008B5D0F85C04FFF70FFA08BD10B504462F
:102DEC000121D0F85C04FFF7F3F9D4F85C04FFF789
:102DFC00CFF910BD10B50446D0F85C04FFF7ECF920
:102E0C00A36923B1024A136943F00603136110BD91
:102E1C0000ED00E008B5D0F85C04FFF7E7F908BD59
:102E2C0010B504461F48C0F85C44C4F820021E4B81
:102E3C00036008234360022383600323C3600023E1
:102E4C008361C3610362FEF72FFC20B14FF48D71D7
:102E5C001648FDF7A3FE182300221146D4F82002D1
:102E6C00FEF704F8582300228021D4F82002FDF745
:102E7C00FDFFC02300228121D4F82002FDF7F6FFCC
:102E8C004FF4887300220121D4F82002FDF7EEFFE5
:102E9C004FF4807300228221D4F82002FDF7E6FF64
:102EAC00002010BDC8170020005C00403C31000819
:102EBC0008B5D0F82002FEF765FC10B1022802D04C
:102ECC0003E0002008BD012008BD022008BD00BFA2
:102EDC0010B51C4613462246D0F82002FEF77EFCA5
:102EEC0010B1022802D003E0002010BD012010BD5B
:102EFC00022010BD08B5D0F82002FEF799FC10B1E5
:102F0C00022802D003E0002008BD012008BD0220E9
:102F1C0008BD00BF08B5D0F82002FEF7D3FF10B1F2
:102F2C00022802D003E0002008BD012008BD0220C9
:102F3C0008BD00BF08B5D0F82002FEF7F1FF10B1B4
:102F4C00022802D003E0002008BD012008BD0220A9
:102F5C0008BD00BFD0F8202211F0800F06D001F080
:102F6C007F0302EB431191F82A00704701F07F01B7
:102F7C0002EB411191F82A02704700BF08B5D0F856
:102F8C002002FEF717FC10B1022802D003E000204B
:102F9C0008BD012008BD022008BD00BF08B5D0F84F
:102FAC002002FEF795FC10B1022802D003E00020AD
:102FBC0008BD012008BD022008BD00BF08B5D0F82F
:102FCC002002FEF75DFC10B1022802D003E00020C5
:102FDC0008BD012008BD022008BD00BF08B5D0F80F
:102FEC002002FEF76DFC08BD0048704780010020F0
:102FFC00704700BF704700BF002103E00B4B5B58CC
:10300C00435004310A480B4B42189A42F6D30A4AF1
:10301C0002E0002342F8043B084B9A42F9D3FDF737
:10302C0021FD00F00FF8FDF709FE70475431000840
:10303C00000000206001002060010020281C0020FE
:10304C00FEE700000E4B70B51E460E4C0025E41A30
:10305C00A410A54204D056F8253098470135F8E75E
:10306C0000F016F8084B094C1E46E41AA410002573
:10307C00A54204D056F8253098470135F8E770BDC5
:10308C004C3100084C3100084C310008503100081C
:10309C00F8B500BFF8BC08BC9E467047F8B500BF39
:0830AC00F8BC08BC9E46704709
:1030B40002030405060708090A0B0C0D0E0F101075
:1030C40001020000000000000000000001020304EF
:1030D400060708095372632F6D61696E2E63000041
:1030E40053544D3332205669727475616C20436FAA
:1030F4006D506F727400000053544D6963726F65B4
:103104006C656374726F6E696373000030303030C5
:10311400303030303030314100000000434443202F
:10312400436F6E666967000043444320496E7465CB
:1031340072666163650000005372632F7573626485
:083144005F636F6E662E6300ED
:04314C003101000845
:043150000D01000865
:1031540000A24A0409024300020100C0320904002B
:1031640000010202010005240010010524010001F0
:103174000424020205240600010705820308001046
:1031840009040100020A00000007050102400000D2
:10319400070581024000000001150008C51400085D
:1031A4005114000800000000C9130008B5130008FA
:1031B40021140008000000000000000000000000CE
:1031C400FD130008F1130008091400081514000881
:1031D4000A06000200000040010000000907430045
:1031E400020104C0320904000001020201000524A6
:1031F4000010010524010001042402020524060034
:1032040001070582030800FF09040100020A000007
:10321400000705010240000007058102400000008C
:1032240009024300020100C0320904000001020245
:1032340001000524001001052401000104240202F8
:103244000524060001070582030800100904010093
:10325400020A0000000705010200020007058102BE
:10326400000200001D22000829220008592200083B
:10327400352200087522000899220008BD220008A2
:1032840004030904120100020202004083044057AF
:103294000002010203010000000D0A00000000000A
:1032A400112D0008AD2C0008B12C0008B52C000825
:0400000508003005BA
:00000001FF
