:020000040800F2
:10000000FF4F0020F10F0008690100086D01000892
:100010007101000875010008790100080000000066
:100020000000000000000000000000007D0100084A
:100030008101000800000000850100088901000816
:10004000391000083910000839100008391000086C
:10005000391000083910000839100008391000085C
:10006000391000083910000839100008391000084C
:10007000391000083910000839100008391000083C
:10008000391000083910000839100008391000082C
:10009000391000083910000839100008391000081C
:1000A000391000083910000839100008391000080C
:1000B00039100008391000083910000839100008FC
:1000C00039100008391000083910000839100008EC
:1000D00039100008D902000839100008391000084A
:1000E000391000083910000839100008000000001D
:1000F0000000000000000000000000000000000000
:0C01000000000000000000005FF808F1A3
:10010C0010B5054C237833B9044B13B10448AFF345
:10011C0000800123237010BD0400002000000000AB
:10012C0088100008084B10B51BB108490848AFF3FC
:10013C0000800848036803B910BD074B002BFBD0A7
:10014C00BDE81040184700BF000000000800002068
:10015C00881000080400002000000000704700BF59
:10016C00FEE700BFFEE700BFFEE700BFFEE700BFF3
:10017C00704700BF704700BF704700BF08B500F064
:10018C0057F908BD00B591B0012306934FF48033A5
:10019C0007930022089202220D920E930F9006A84C
:1001AC0000F05CFA00B1FEE70F23019302210291EB
:1001BC00002303934FF480620492059301A800F08E
:1001CC0085FC00B1FEE711B05DF804FB82B0019034
:1001DC00019B5A1E0192002BFAD102B0704700BF4E
:1001EC0030B587B000F012F94FF4E010FFF7CAFFFA
:1001FC00154B9A6942F010029A619B6903F0100347
:10020C000193019B4FF40053029301230393049336
:10021C000323059302A90D4800F018F90B4D012298
:10022C004FF40051284600F0FDF9094C2046FFF729
:10023C00CDFF00224FF40051284600F0F3F9204680
:10024C00FFF7C4FFEAE700BF0010024000100140B6
:10025C00FFFF7F000268194B9A422DD1184B1B8867
:10026C0013F4004F28D103F4804292B272B1154AB4
:10027C0012780A2A03D00022114B1A8070476FEAB9
:10028C0043436FEA53430E4A138070470D4A12786A
:10029C000D2A04D143F48043094A13807047C3F3F9
:1002AC000D010948425401339BB2054A1380C72BF8
:1002BC0002D90022024B1A80704700BF003801405F
:1002CC0020000020640000206800002008B50848C9
:1002DC0000F092FD064800F025FE2028FAD10122FC
:1002EC000449034800F0F8FC0028F8D108BD00BF11
:1002FC002400002064000020704700BF0F4B1A68D8
:10030C0042F001021A6059680D4A0A405A601A6894
:10031C0022F0847222F480321A601A6822F480224D
:10032C001A605A6822F4FE025A604FF41F029A6057
:10033C004FF00062034B9A60704700BF0010024000
:10034C000000FFF800ED00E008B590F82130022B1A
:10035C0003D004238363012008BD0268136823F0D3
:10036C000E0313600268136823F001031360036823
:10037C00194A934211D01432934210D01432934242
:10038C000FD0143293420FD0143293420FD0143248
:10039C0093420FD14FF480120EE001220CE0102298
:1003AC000AE04FF4807207E04FF4805204E04FF4FF
:1003BC00803201E04FF08072084B5A60012380F8C4
:1003CC002130002380F82030436B13B19847002074
:1003DC0008BD002008BD00BF08000240000002401C
:1003EC0010B50446074B1B680748A0FB0330800977
:1003FC0000F0E2FD002221464FF0FF3000F0AAFD94
:10040C00002010BD00000020D34D621008B5074A33
:10041C00136843F010031360032000F089FD0F20D4
:10042C00FFF7DEFFFFF768FF002008BD0020024049
:10043C00024A136801331360704700BF9801002013
:10044C00014B1868704700BF98010020F0B583B0CD
:10045C0000263446D5E00122A2400B6813409A4294
:10046C0040F0CE804D68122D2DD00BD8022D27D008
:10047C0003D85DB3012D1ED035E0032D30D0112DE6
:10048C001BD030E0614FBD4220D008D8A7F58017B3
:10049C00BD421BD007F58037BD4224D116E05C4F1E
:1004AC00BD4213D007F58037BD420FD0A7F580179A
:1004BC00BD4218D10AE0CE6815E0CE68043612E0D1
:1004CC00CE6808360FE0CE680C360CE08D684DB166
:1004DC00012D02D10261082605E04261082602E0E6
:1004EC00002600E00426FF2B01D8864601E000F12F
:1004FC00040EFF2B01D8A20002E0A4F10802920026
:10050C00DEF800700F25954027EA050506FA02F281
:10051C002A43CEF800204A6812F0805F70D03D4A22
:10052C00956945F001059561926902F0010201920D
:10053C00019AA708BD1C384A52F8255004F0030252
:10054C0092004FF00F0E0EFA02FE25EA0E0E334DFE
:10055C00A8420DD005F58065A8420BD005F5806545
:10056C00A84209D005F58065A84207D1032506E00D
:10057C00002504E0012502E0022500E0042505FA2F
:10058C0002F24EEA02020237234D45F827204A6850
:10059C0012F4803F05D005F580652A681A432A605D
:1005AC0004E01F4D2A6822EA03022A604A6812F40A
:1005BC00003F04D01A4D6A681A436A6004E0184D73
:1005CC006A6822EA03026A604A6812F4801F04D047
:1005DC00134DAA681A43AA6004E0114DAA6822EAD6
:1005EC000302AA604A6812F4001F04D00C4DEA689A
:1005FC001343EB6004E00A4DEA6822EA0303EB6064
:10060C0001340F2C7FF627AF03B0F0BD0000211092
:10061C0000003110001002400000014000080140B1
:10062C00000401400AB1016170470904016170477F
:10063C0082B0084B1B68084AA2FB03235B0A00FB31
:10064C0003F0019000BF019B5A1E0192002BF9D1BF
:10065C0002B0704700000020D34D621070B582B01C
:10066C000446036813F0010F6BD0A84B5B6803F0D2
:10067C000C03042B0AD0A54B5B6803F00C03082B6E
:10068C000DD1A24B5B6813F4803F08D09F4B1B68C5
:10069C0013F4003F55D06368002B52D1B8E1636866
:1006AC00B3F5803F05D1994A136843F48033136046
:1006BC0026E063B903F1804303F504331A6822F48E
:1006CC0080321A601A6822F480221A6018E0B3F59E
:1006DC00A02F0CD103F18043A3F53C331A6842F4EC
:1006EC0080221A601A6842F480321A6008E0874B44
:1006FC001A6822F480321A601A6822F480221A6076
:10070C0063687BB1FFF79CFE054605E0FFF798FE9A
:10071C00401B642800F27E817C4B1B6813F4003F65
:10072C00F4D00EE0FFF78CFE054605E0FFF788FEDF
:10073C00401B642800F27081744B1B6813F4003F5B
:10074C00F4D1236813F0020F50D0704B5B6813F098
:10075C000C0F0AD06D4B5B6803F00C03082B16D101
:10076C006A4B5B6813F4803F11D1684B1B6813F024
:10077C00020F03D02369012B40F05081634A1368A8
:10078C0023F0F803616943EAC10313602EE0236987
:10079C00D3B101225E4B1A60FFF752FE054605E00D
:1007AC00FFF74EFE401B022800F23A81574B1B68A4
:1007BC0013F0020FF4D0554A136823F0F803616963
:1007CC0043EAC103136011E00022514B1A60FFF79A
:1007DC0037FE054605E0FFF733FE401B022800F20A
:1007EC0021814A4B1B6813F0020FF4D1236813F0DC
:1007FC00080F29D0A369ABB10122464B1A60FFF751
:10080C001FFE054605E0FFF71BFE401B022800F209
:10081C000B813E4B5B6A13F0020FF4D00120FFF703
:10082C0007FF11E000223B4B1A60FFF709FE05465B
:10083C0005E0FFF705FE401B022800F2F780334B62
:10084C005B6A13F0020FF4D1236813F0040F00F06D
:10085C0089802E4BDB6913F0805F0BD12B4BDA694F
:10086C0042F08052DA61DB6903F080530193019B03
:10087C00012500E00025284B1B6813F4807F13D161
:10088C00254A136843F480731360FFF7D9FD0646BD
:10089C0005E0FFF7D5FD801B642800F2C9801E4BD4
:1008AC001B6813F4807FF4D0E368012B05D1174A41
:1008BC00136A43F00103136222E063B903F180432E
:1008CC0003F504331A6A22F001021A621A6A22F042
:1008DC0004021A6214E0052B09D10C4B1A6A42F07F
:1008EC0004021A621A6A42F001021A6208E0074B0B
:1008FC001A6A22F001021A621A6A22F004021A62BF
:10090C00E368CBB1FFF79CFD06460FE000100240F8
:10091C00000042428004424200700040FFF790FD0C
:10092C00801B41F28833984200F28480494B1B6A49
:10093C0013F0020FF2D00FE0FFF782FD064606E03F
:10094C00FFF77EFD801B41F28833984274D8414BEF
:10095C001B6A13F0020FF3D125B13E4AD36923F081
:10096C008053D361E369002B68D03A4A526802F095
:10097C000C02082A64D0022B37D10022364B1A60A5
:10098C00FFF75EFD054604E0FFF75AFD401B022809
:10099C0058D8304B1B6813F0007FF5D1236AB3F5A0
:1009AC00803F06D12B494B6823F40032A3681343D4
:1009BC004B602848436823F47411236A626A13431A
:1009CC000B4343600122244B1A60FFF739FD0446A8
:1009DC0004E0FFF735FD001B022835D81D4B1B68C2
:1009EC0013F0007FF5D0002031E000221A4B1A6082
:1009FC00FFF726FD044604E0FFF722FD001B02284A
:100A0C0024D8144B1B6813F0007FF5D100201EE096
:100A1C0001201CE003201AE0032018E0012016E05E
:100A2C00032014E0032012E0032010E003200EE06A
:100A3C0003200CE003200AE0032008E0002006E07D
:100A4C00012004E0032002E0032000E0032002B0B8
:100A5C0070BD00BF001002406000424230B486B04E
:100A6C00164D02AC28686968AA68EB680FC42B8A1B
:100A7C00ADF80430124B5B6803F00C02082A19D154
:100A8C00C3F3834206A90A4412F8102C13F4803FD6
:100A9C000CD00B4B5B68C3F340430B4413F8140CA2
:100AAC00084BB3FBF0F000FB02F004E0064800FB3F
:100ABC0002F000E0034806B030BC7047A0100008FC
:100ACC000010024000127A0000093D0070B55C4B2A
:100ADC001B6803F007038B420BD2594A136823F0AF
:100AEC0007030B431360136803F00703994240F0AC
:100AFC009780036813F0020F06D0524C636823F002
:100B0C00F0028368134363600D460446036813F0D8
:100B1C00010F4DD04268012A05D14A4B1B6813F4D2
:100B2C00003F0DD17EE0022A05D1464B1B6813F025
:100B3C00007F05D178E0434B1B6813F0020F75D092
:100B4C0040494B6823F0030313434B60FFF778FCD9
:100B5C0006466368012B0ED106E0FFF771FC801B83
:100B6C0041F28833984263D8364B5B6803F00C0330
:100B7C00042BF2D11CE0022B15D106E0FFF760FC30
:100B8C00801B41F28833984254D82E4B5B6803F09B
:100B9C000C03082BF2D10BE0FFF752FC801B41F247
:100BAC008833984248D8274B5B6813F00C0FF3D16D
:100BBC00234B1B6803F007039D420AD2204A13689B
:100BCC0023F007032B431360136803F007039D42C4
:100BDC0034D1236813F0040F06D01A494B6823F460
:100BEC00E062E36813434B60236813F0080F07D0EF
:100BFC00144A536823F46053216943EAC1035360D8
:100C0C00FFF72CFF0F4B5B68C3F303130E4AD35C47
:100C1C00D8400E4B18600F20FFF7E2FB002070BD90
:100C2C00012070BD012070BD012070BD012070BD80
:100C3C00032070BD032070BD032070BD012070BD6A
:100C4C000020024000100240B410000800000020F8
:100C5C000268D36823F49073D3600268536923F05D
:100C6C0001035361202380F83A30704790F83930F3
:100C7C00DBB2212B2BD18368B3F5805F0FD1036AD4
:100C8C0002681B88C3F30803536003691BB9036A2A
:100C9C000233036209E0036A0133036205E0026870
:100CAC00036A591C01621B785360C38C9BB2013BD5
:100CBC009BB2C3846BB90268D36823F08003D36002
:100CCC000268D36843F04003D360002070470220D1
:100CDC0070470020704700BF90F83A30DBB2202BF1
:100CEC0020D109B312B390F83830012B20D0816297
:100CFC008285C2850023C363222280F83A2080F8C3
:100D0C0038300168CA6842F48072CA6001684A6966
:100D1C0042F001024A610168CA6842F02002CA60CE
:100D2C001846704702207047012070470120704719
:100D3C0002207047704700BF08B50168CB6823F0EC
:100D4C004003CB60202380F83930FFF7F3FF0020FD
:100D5C0008BD00BF08B590F83A30DBB2222B44D165
:100D6C008368B3F5805F13D1826A036943B9036862
:100D7C005B68C3F308031380836A0233836218E051
:100D8C0003685B68DBB21380836A0133836210E013
:100D9C00036933B9836A5A1C8262026852681A70FA
:100DAC0007E0826A531C836203685B6803F07F036D
:100DBC001370C38D9BB2013B9BB2C385BBB9026858
:100DCC00D36823F02003D3600268D36823F48073C4
:100DDC00D3600268536923F001035361202380F828
:100DEC003A30FFF737FA002008BD022008BD00207A
:100DFC0008BD00BF704700BF10B5044602681368F9
:100E0C00D168526913F00F0009D113F0200F06D0EE
:100E1C0011F0200F03D02046FFF79CFF10BD0028D7
:100E2C0062D012F0010202D111F4907F5CD013F069
:100E3C00010F06D011F4807F03D0E06B40F001006D
:100E4C00E06313F0040F04D01AB1E06B40F0020021
:100E5C00E06313F0020F04D01AB1E06B40F0040011
:100E6C00E06313F0080F04D01AB1E26B42F00802F1
:100E7C00E263E26B002A4AD013F0200F05D011F088
:100E8C00200F02D02046FFF765FF23685B6903F053
:100E9C004003E26B12F0080F00D1FBB12046FFF7C4
:100EAC00D7FE23685A6912F0400F13D05A6922F00A
:100EBC0040025A61636B4BB1154A5A63606BFFF782
:100ECC0043FA20B3606B436B984710BD2046FFF785
:100EDC0091FF10BD2046FFF78DFF10BD2046FFF798
:100EEC0089FF0023E36310BD13F0800F06D011F0CF
:100EFC00800F03D02046FFF7B9FE10BD13F0400F52
:100F0C0005D011F0400F02D02046FFF715FF10BDA1
:100F1C00210F000808B5406A0023C385C384FFF77E
:100F2C0069FF08BD90F8393090F83A0018437047C3
:100F3C00074AD36823F4E0631B041B0C000200F483
:100F4C00E060184340F0BF6040F40030D060704760
:100F5C0000ED00E030B4164BDB68C3F30223C3F1A1
:100F6C000704042C28BF04241D1D062D01D9DD1EE9
:100F7C0000E00025012303FA04F4013C2140A940C0
:100F8C00AB40013B1A400A43002806DA00F00F0080
:100F9C001201D2B2074B1A5407E01201D2B200F17F
:100FAC00604000F5614080F8002330BC704700BF02
:100FBC0000ED00E014ED00E00138B0F1807F0AD2C2
:100FCC00064B5860F021064A82F8231000209860E6
:100FDC0007221A6070470120704700BF10E000E044
:100FEC0000ED00E0002103E00B4B5B584350043153
:100FFC000A480B4B42189A42F6D30A4A02E00023E5
:10100C0042F8043B084B9A42F9D3FFF777F900F00A
:10101C000FF8FFF7E5F87047CC100008000000202F
:10102C0004000020040000209C010020FEE70000CA
:10103C000E4B70B51E460E4C0025E41AA410A542AA
:10104C0004D056F8253098470135F8E700F016F82B
:10105C00084B094C1E46E41AA4100025A54204D0E6
:10106C0056F8253098470135F8E770BDC4100008D4
:10107C00C4100008C4100008C8100008F8B500BF60
:10108C00F8BC08BC9E467047F8B500BFF8BC08BC5D
:04109C009E467047B5
:1010A00002030405060708090A0B0C0D0E0F1010A9
:1010B0000102000000000000000000000102030423
:0410C000060708090E
:0410C40031010008EE
:0410C8000D0100080E
:0410CC0000A24A0430
:0400000508000FF1EF
:00000001FF
